{
  "_format": "hh-sol-artifact-1",
  "contractName": "SnippetsDApp",
  "sourceName": "contracts/FeedbackDApp.sol",
  "abi": [
    {
      "inputs": [],
      "stateMutability": "payable",
      "type": "constructor"
    },
    {
      "anonymous": false,
      "inputs": [
        {
          "indexed": true,
          "internalType": "address",
          "name": "from",
          "type": "address"
        },
        {
          "indexed": false,
          "internalType": "uint256",
          "name": "timestamp",
          "type": "uint256"
        },
        {
          "indexed": false,
          "internalType": "string",
          "name": "message",
          "type": "string"
        }
      ],
      "name": "newSnippet",
      "type": "event"
    },
    {
      "inputs": [],
      "name": "addSenderAddress",
      "outputs": [],
      "stateMutability": "nonpayable",
      "type": "function"
    },
    {
      "inputs": [],
      "name": "getAllSnippets",
      "outputs": [
        {
          "components": [
            {
              "internalType": "address",
              "name": "user",
              "type": "address"
            },
            {
              "internalType": "string",
              "name": "message",
              "type": "string"
            },
            {
              "internalType": "uint256",
              "name": "timestamp",
              "type": "uint256"
            }
          ],
          "internalType": "struct SnippetsDApp.Snippet[]",
          "name": "",
          "type": "tuple[]"
        }
      ],
      "stateMutability": "view",
      "type": "function"
    },
    {
      "inputs": [],
      "name": "getTotalSnippets",
      "outputs": [
        {
          "internalType": "uint256",
          "name": "",
          "type": "uint256"
        }
      ],
      "stateMutability": "view",
      "type": "function"
    },
    {
      "inputs": [
        {
          "internalType": "uint256",
          "name": "",
          "type": "uint256"
        }
      ],
      "name": "senderAddresses",
      "outputs": [
        {
          "internalType": "address",
          "name": "",
          "type": "address"
        }
      ],
      "stateMutability": "view",
      "type": "function"
    },
    {
      "inputs": [
        {
          "internalType": "string",
          "name": "_message",
          "type": "string"
        }
      ],
      "name": "snippet",
      "outputs": [],
      "stateMutability": "nonpayable",
      "type": "function"
    }
  ],
  "bytecode": "0x608060405262000033604051806060016040528060288152602001620013be602891396200003960201b6200057e1760201c565b620001c3565b620000d9816040516024016200005091906200019f565b6040516020818303038152906040527f41304fac000000000000000000000000000000000000000000000000000000007bffffffffffffffffffffffffffffffffffffffffffffffffffffffff19166020820180517bffffffffffffffffffffffffffffffffffffffffffffffffffffffff8381831617835250505050620000dc60201b60201c565b50565b60008151905060006a636f6e736f6c652e6c6f679050602083016000808483855afa5050505050565b600081519050919050565b600082825260208201905092915050565b60005b838110156200014157808201518184015260208101905062000124565b60008484015250505050565b6000601f19601f8301169050919050565b60006200016b8262000105565b62000177818562000110565b93506200018981856020860162000121565b62000194816200014d565b840191505092915050565b60006020820190508181036000830152620001bb81846200015e565b905092915050565b6111eb80620001d36000396000f3fe608060405234801561001057600080fd5b50600436106100575760003560e01c806304a8eefd1461005c57806320f2259a1461007a5780639f121e0814610096578063c111948d146100b4578063eb00bbd3146100be575b600080fd5b6100646100ee565b6040516100719190610794565b60405180910390f35b610094600480360381019061008f9190610909565b61011c565b005b61009e610389565b6040516100ab9190610b33565b60405180910390f35b6100bc6104da565b005b6100d860048036038101906100d39190610b81565b61053f565b6040516100e59190610bbd565b60405180910390f35b600061011460405180606001604052806021815260200161119560219139600054610617565b600054905090565b600160008082825461012e9190610c07565b925050819055506101756040518060400160405280602081526020017f2573206c656674206120736e697070657420772f206d6573736167652025732181525033836106b3565b600160405180606001604052803373ffffffffffffffffffffffffffffffffffffffff16815260200183815260200142815250908060018154018082558091505060019003906000526020600020906003020160009091909190915060008201518160000160006101000a81548173ffffffffffffffffffffffffffffffffffffffff021916908373ffffffffffffffffffffffffffffffffffffffff160217905550602082015181600101908161022d9190610e47565b506040820151816002015550503373ffffffffffffffffffffffffffffffffffffffff167f2ea549cee9b34d0119545b8361189c1d3495572cead6208ef530b1af60eef54b4283604051610282929190610f63565b60405180910390a26000655af3107a40009050478111156102d8576040517f08c379a00000000000000000000000000000000000000000000000000000000081526004016102cf90611005565b60405180910390fd5b60003373ffffffffffffffffffffffffffffffffffffffff16826040516102fe90611056565b60006040518083038185875af1925050503d806000811461033b576040519150601f19603f3d011682016040523d82523d6000602084013e610340565b606091505b5050905080610384576040517f08c379a000000000000000000000000000000000000000000000000000000000815260040161037b906110dd565b60405180910390fd5b505050565b60606001805480602002602001604051908101604052809291908181526020016000905b828210156104d157838290600052602060002090600302016040518060600160405290816000820160009054906101000a900473ffffffffffffffffffffffffffffffffffffffff1673ffffffffffffffffffffffffffffffffffffffff1673ffffffffffffffffffffffffffffffffffffffff16815260200160018201805461043690610c6a565b80601f016020809104026020016040519081016040528092919081815260200182805461046290610c6a565b80156104af5780601f10610484576101008083540402835291602001916104af565b820191906000526020600020905b81548152906001019060200180831161049257829003601f168201915b50505050508152602001600282015481525050815260200190600101906103ad565b50505050905090565b6002339080600181540180825580915050600190039060005260206000200160009091909190916101000a81548173ffffffffffffffffffffffffffffffffffffffff021916908373ffffffffffffffffffffffffffffffffffffffff160217905550565b6002818154811061054f57600080fd5b906000526020600020016000915054906101000a900473ffffffffffffffffffffffffffffffffffffffff1681565b6106148160405160240161059291906110fd565b6040516020818303038152906040527f41304fac000000000000000000000000000000000000000000000000000000007bffffffffffffffffffffffffffffffffffffffffffffffffffffffff19166020820180517bffffffffffffffffffffffffffffffffffffffffffffffffffffffff8381831617835250505050610752565b50565b6106af828260405160240161062d92919061111f565b6040516020818303038152906040527fb60e72cc000000000000000000000000000000000000000000000000000000007bffffffffffffffffffffffffffffffffffffffffffffffffffffffff19166020820180517bffffffffffffffffffffffffffffffffffffffffffffffffffffffff8381831617835250505050610752565b5050565b61074d8383836040516024016106cb9392919061114f565b6040516020818303038152906040527fe0e9ad4f000000000000000000000000000000000000000000000000000000007bffffffffffffffffffffffffffffffffffffffffffffffffffffffff19166020820180517bffffffffffffffffffffffffffffffffffffffffffffffffffffffff8381831617835250505050610752565b505050565b60008151905060006a636f6e736f6c652e6c6f679050602083016000808483855afa5050505050565b6000819050919050565b61078e8161077b565b82525050565b60006020820190506107a96000830184610785565b92915050565b6000604051905090565b600080fd5b600080fd5b600080fd5b600080fd5b6000601f19601f8301169050919050565b7f4e487b7100000000000000000000000000000000000000000000000000000000600052604160045260246000fd5b610816826107cd565b810181811067ffffffffffffffff82111715610835576108346107de565b5b80604052505050565b60006108486107af565b9050610854828261080d565b919050565b600067ffffffffffffffff821115610874576108736107de565b5b61087d826107cd565b9050602081019050919050565b82818337600083830152505050565b60006108ac6108a784610859565b61083e565b9050828152602081018484840111156108c8576108c76107c8565b5b6108d384828561088a565b509392505050565b600082601f8301126108f0576108ef6107c3565b5b8135610900848260208601610899565b91505092915050565b60006020828403121561091f5761091e6107b9565b5b600082013567ffffffffffffffff81111561093d5761093c6107be565b5b610949848285016108db565b91505092915050565b600081519050919050565b600082825260208201905092915050565b6000819050602082019050919050565b600073ffffffffffffffffffffffffffffffffffffffff82169050919050565b60006109a98261097e565b9050919050565b6109b98161099e565b82525050565b600081519050919050565b600082825260208201905092915050565b60005b838110156109f95780820151818401526020810190506109de565b60008484015250505050565b6000610a10826109bf565b610a1a81856109ca565b9350610a2a8185602086016109db565b610a33816107cd565b840191505092915050565b610a478161077b565b82525050565b6000606083016000830151610a6560008601826109b0565b5060208301518482036020860152610a7d8282610a05565b9150506040830151610a926040860182610a3e565b508091505092915050565b6000610aa98383610a4d565b905092915050565b6000602082019050919050565b6000610ac982610952565b610ad3818561095d565b935083602082028501610ae58561096e565b8060005b85811015610b215784840389528151610b028582610a9d565b9450610b0d83610ab1565b925060208a01995050600181019050610ae9565b50829750879550505050505092915050565b60006020820190508181036000830152610b4d8184610abe565b905092915050565b610b5e8161077b565b8114610b6957600080fd5b50565b600081359050610b7b81610b55565b92915050565b600060208284031215610b9757610b966107b9565b5b6000610ba584828501610b6c565b91505092915050565b610bb78161099e565b82525050565b6000602082019050610bd26000830184610bae565b92915050565b7f4e487b7100000000000000000000000000000000000000000000000000000000600052601160045260246000fd5b6000610c128261077b565b9150610c1d8361077b565b9250828201905080821115610c3557610c34610bd8565b5b92915050565b7f4e487b7100000000000000000000000000000000000000000000000000000000600052602260045260246000fd5b60006002820490506001821680610c8257607f821691505b602082108103610c9557610c94610c3b565b5b50919050565b60008190508160005260206000209050919050565b60006020601f8301049050919050565b600082821b905092915050565b600060088302610cfd7fffffffffffffffffffffffffffffffffffffffffffffffffffffffffffffffff82610cc0565b610d078683610cc0565b95508019841693508086168417925050509392505050565b6000819050919050565b6000610d44610d3f610d3a8461077b565b610d1f565b61077b565b9050919050565b6000819050919050565b610d5e83610d29565b610d72610d6a82610d4b565b848454610ccd565b825550505050565b600090565b610d87610d7a565b610d92818484610d55565b505050565b5b81811015610db657610dab600082610d7f565b600181019050610d98565b5050565b601f821115610dfb57610dcc81610c9b565b610dd584610cb0565b81016020851015610de4578190505b610df8610df085610cb0565b830182610d97565b50505b505050565b600082821c905092915050565b6000610e1e60001984600802610e00565b1980831691505092915050565b6000610e378383610e0d565b9150826002028217905092915050565b610e50826109bf565b67ffffffffffffffff811115610e6957610e686107de565b5b610e738254610c6a565b610e7e828285610dba565b600060209050601f831160018114610eb15760008415610e9f578287015190505b610ea98582610e2b565b865550610f11565b601f198416610ebf86610c9b565b60005b82811015610ee757848901518255600182019150602085019450602081019050610ec2565b86831015610f045784890151610f00601f891682610e0d565b8355505b6001600288020188555050505b505050505050565b600082825260208201905092915050565b6000610f35826109bf565b610f3f8185610f19565b9350610f4f8185602086016109db565b610f58816107cd565b840191505092915050565b6000604082019050610f786000830185610785565b8181036020830152610f8a8184610f2a565b90509392505050565b7f547279696e6720746f207769746864726177206d6f7265206d6f6e657920746860008201527f616e2074686520636f6e7472616374206861732e000000000000000000000000602082015250565b6000610fef603483610f19565b9150610ffa82610f93565b604082019050919050565b6000602082019050818103600083015261101e81610fe2565b9050919050565b600081905092915050565b50565b6000611040600083611025565b915061104b82611030565b600082019050919050565b600061106182611033565b9150819050919050565b7f4661696c656420746f207769746864726177206d6f6e65792066726f6d20636f60008201527f6e74726163742e00000000000000000000000000000000000000000000000000602082015250565b60006110c7602783610f19565b91506110d28261106b565b604082019050919050565b600060208201905081810360008301526110f6816110ba565b9050919050565b600060208201905081810360008301526111178184610f2a565b905092915050565b600060408201905081810360008301526111398185610f2a565b90506111486020830184610785565b9392505050565b600060608201905081810360008301526111698186610f2a565b90506111786020830185610bae565b818103604083015261118a8184610f2a565b905094935050505056fe5961792120776527766520676f7420256420746f74616c20736e69707065747321a26469706673582212202f8184f1e53b6af00475c6c6c7d489e5d4670411dfdd8cf8951d8bcbc988798064736f6c634300081100334920616d2044657643686565736520616e642074686973206973206d792066697273742044417070",
  "linkReferences": {},
  "deployedLinkReferences": {}
}